:03000000020006F5
:03005F0002000399
:0300030002006296
:100062001201954392024393024392104393104329
:100072009220439320439240439340439280439380
:1000820080439601439701439602439702439604A5
:10009200439704439608439708439610439710905A
:1000A2000600E4F0C291C294C295C296C297C2B051
:1000B200C2B1C2B2C2B3C2B49000641201E4D2911E
:1000C200D294D295D296D297D2B0D2B1D2B2D2B382
:1000D200D2B49000641201E4900600E02401F0E042
:1000E200FFBF070040BE900625E0FEA3E0FF8E8220
:1000F2008F831201E4B2B2900625E0FEA3E0FF8EE8
:10010200828F831201E4B294900625E0FEA3E0FF01
:100112008E828F831201E4B295900625E0FEA3E061
:10012200FF8E828F831201E4B296900625E0FEA331
:10013200E0FF8E828F831201E4B297900625E0FEE3
:10014200A3E0FF8E828F831201E4B2B1900625E014
:10015200FEA3E0FF8E828F831201E4B2B0900625E7
:10016200E0FEA3E0FF8E828F831201E4B29190063B
:1001720025E0FEA3E0FF8E828F831201E4B2B390EA
:100182000625E0FEA3E0FF8E828F831201E4B2B463
:030192000200E880
:0205A9006400EC
:1001950075A15575A1AA74F855B94406F5B975A1A7
:1001A5000022AF83E582900601F0EFA3F0900601EF
:1001B500E0FEA3E0FFEE4F601D05A105A105A10529
:1001C500A105A105A105A11EBEFF011F900601EE17
:1001D500F0EFA3F080DF900601EEF0EFA3F022AF81
:1001E50083E582900603F0EFA3F0900603E0FEA3FB
:1001F500E0FFEE4F601D9003E8C007C0061201A79F
:10020500D006D0071EBEFF011F900603EEF0EFA338
:10021500F080DF900603EEF0EFA3F02243C6102234
:10022500C29FD29EC29DC2CDC2CC43878090060597
:10023500741AF07406A3F0E4A3F0A3F0900605E0A9
:10024500FCA3E0FDA3E0FEA3E0FF90060F740AF017
:10025500E4A3F0A3F0A3F08C828D838EF0EF12035C
:1002650071AC82900609ECF0900605E0FCA3E0FD78
:10027500A3E0FEA3E0FF900618740AF0E4A3F0A340
:10028500F0A3F08C828D838EF0EF1204B1AC82ADB9
:1002950083AEF0FF900605ECF0EDA3F0EEA3F0EFD2
:1002A500A3F0900609E0FFBF05004021900605E098
:1002B500FCA3E0FDA3E0FEA3E0FF90060574012C7E
:1002C500F0E43DA3F0E43EA3F0E43FA3F0740F5542
:1002D500894420F58943C9A0900605E0FCA3E0A365
:1002E500E0A3E0C3E49CF58DD28ED299D29C221076
:1002F500980280FB85998222E58290060AF0E0F556
:100305009910990280FB22E58290060BF010990264
:1003150080FB90060BE0F5992210980280FB8599E9
:100325008222C2C7D2C5D2C475C2642210C002805F
:10033500FB85C18222E58290060CF0E0F5C130C153
:10034500FDD2C122E58290060DF075A15575A1AAD1
:10035500E0600543B101800353B1FE75A10075FF4F
:100365000022E58290060EF0E0F5FF22AF82AE8313
:10037500ADF0FC900613EFF0EEA3F0EDA3F0ECA3C7
:10038500F0900617E4F0900613E0FCA3E0FDA3E06F
:10039500FEA3E0FF7B0090060FE0F508A3E0F5095A
:1003A500A3E0F50AA3E0F50B235401FA7074C0032A
:1003B500E5082508F8E50933F9E50A33FAE50B33CD
:1003C500FB90060FE8F0E9A3F0EAA3F0EBA3F090A9
:1003D500060FE0F508A3E0F509A3E0F50AA3E0F5AB
:1003E5000BC3EC9508ED9509EE950AEF950BD00337
:1003F5005027E50BC313F50BE50A13F50AE50913B9
:10040500F509E50813F50890060FF0E509A3F0E5F1
:100415000AA3F0E50BA3F080090B900617EBF00299
:10042500039B900617E0FF900613E0FBA3E0FCA3F7
:10043500E0FDA3E0FE90060FE0F508A3E0F509A3B3
:10044500E0F50AA3E0F50BC3EB9508EC9509ED95EE
:100455000AEE950B4017900613EBC39508F0EC9543
:1004650009A3F0ED950AA3F0EE950BA3F090060F06
:10047500E0FBA3E0FCA3E0FDA3E0C313FEED13FD49
:10048500EC13FCEB1390060FF0ECA3F0EDA3F0EEEC
:10049500A3F08F061FEE708F900613E0FCA3E0FD1E
:1004A500A3E0FEA3E08C828D838EF022AF82AE8323
:1004B500ADF0FC90061CEFF0EEA3F0EDA3F0ECA37D
:1004C500F0900620E4F0A3F0A3F0A3F0900618E066
:1004D500FCA3E0FDA3E0FEA3E0FF7B20C0039006A4
:1004E5001CE0F8A3E0F9A3E0FAA3E0FB90062423BF
:1004F5005401F0E828F8E933F9EA33FAEB33FB90D5
:10050500061CE8F0E9A3F0EAA3F0EBA3F0900620BF
:10051500E0F8A3E0F9A3E0FAA3E0FBE828F8E93363
:10052500F9EA33FAEB33FB900620E8F0E9A3F0EAA9
:10053500A3F0EBA3F0D003900624E060089006201A
:10054500E043E001F0900620E0F508A3E0F509A3FB
:10055500E0F50AA3E0F50BC3E5089CE5099DE50A6E
:100565009EE50B9F401F900620E508C39CF0E5091A
:100575009DA3F0E50A9EA3F0E50B9FA3F090061C52
:10058500E043E001F01BEB60030204E190061CE090
:10059500FCA3E0FDA3E0FEA3E08C828D838EF02218
:06003500E478FFF6D8FD9F
:100013007902E94400601B7A019005A9782575A04F
:1000230006E493F2A308B8000205A0D9F4DAF27546
:02003300A0FF2C
:10003B007800E84400600A790075A006E4F309D85B
:10004B00FC7825E84400600C7901900600E4F0A3ED
:04005B00D8FCD9FAFA
:0D00060075810B1205A5E582600302000361
:0405A5007582002239
:00000001FF
